:100000000C9463000C948B000C948B000C94910561
:100010000C9491050C9491050C948B000C948B001E
:100020000C948B000C948B000C948B000C94D504D6
:100030000C948B000C948B000C948B000C948B0014
:100040000C948B040C948B000C9459040C94330482
:100050000C948B000C948B000C948B000C948B00F4
:100060000C948B000C948B000000000024002700EF
:100070002A0000000008000201000003040700003D
:1000800000000000000000000000230026002900FE
:1000900000000000250028002B00040404040404D0
:1000A0000404020202020202030303030303010227
:1000B00004081020408001020408102001020408F6
:1000C00010200906090A11241FBECFEFD8E0DEBFB9
:1000D000CDBF11E0A0E0B1E0EEE8F5E102C005908F
:1000E0000D92AE3FB107D9F723E0AEEFB1E001C00A
:1000F0001D92A834B207E1F710E0C2E6D0E004C0D8
:100100002197FE010E94B40AC136D107C9F70E94A7
:100110009A070C94BA0A0C940000E0914503EC3065
:1001200088F54091460328E830E0241B310947FD5B
:100130003395220F331F220F331F8217930784F04A
:100140004091470328E532E0241B310947FD3395F0
:10015000220F331F220F331F821793070CF49C01C9
:1001600022503109220F331F4FB7F8948E2F90E0A1
:10017000FC01EE0FFF1FE80FF91FE751FD4F32831F
:1001800021834FBF0895AF92BF92CF92DF92EF923B
:10019000FF920F931F93CF93DF936C017B018B0131
:1001A000040F151FEB015E01AE18BF08C017D10781
:1001B00059F06991D601ED91FC910190F081E02D0B
:1001C000C6010995892B79F7C501DF91CF911F9160
:1001D0000F91FF90EF90DF90CF90BF90AF90089578
:1001E000FC01538D448D252F30E0842F90E0821B3D
:1001F000930B541710F0CF96089501970895FC01C2
:10020000918D828D981761F0A28DAE0FBF2FB11D19
:100210005D968C91928D9F5F9F73928F90E0089571
:100220008FEF9FEF0895FC01918D828D981731F02B
:10023000828DE80FF11D858D90E008958FEF9FEF7F
:100240000895FC01918D228D892F90E0805C9F4F55
:10025000821B91098F73992708958CE492E00E9484
:10026000210121E0892B09F420E0822F089580E00C
:1002700090E0892B29F00E942D0181110C9400003F
:100280000895FC01A48DA80FB92FB11DA35ABF4F2B
:100290002C91848D90E001968F739927848FA68985
:1002A000B7892C93A089B1898C91837080648C93D9
:1002B000938D848D981306C00288F389E02D808188
:1002C0008F7D80830895EF92FF920F931F93CF93BA
:1002D000DF93EC0181E0888F9B8D8C8D98131AC081
:1002E000E889F989808185FF15C09FB7F894EE8968
:1002F000FF896083E889F9898081837080648083C5
:100300009FBF81E090E0DF91CF911F910F91FF900F
:10031000EF900895F62E0B8D10E00F5F1F4F0F73B7
:100320001127E02E8C8D8E110CC00FB607FCFACF72
:10033000E889F989808185FFF5CFCE010E944101CE
:10034000F1CFEB8DEC0FFD2FF11DE35AFF4FF08243
:100350009FB7F8940B8FEA89FB8980818062CFCFA9
:10036000CF93DF93EC01888D8823B9F0AA89BB89EC
:10037000E889F9898C9185FD03C0808186FD0DC0D7
:100380000FB607FCF7CF8C9185FFF2CF808185FFF8
:10039000EDCFCE010E944101E9CFDF91CF910895C9
:1003A000833081F028F4813099F08230A9F00895EB
:1003B0008730A9F08830C9F08430B1F48091800092
:1003C0008F7D03C0809180008F7780938000089597
:1003D00084B58F7784BD089584B58F7DFBCF8091E0
:1003E000B0008F778093B00008958091B0008F7D2A
:1003F000F9CF1F93CF93DF93282F30E0F901EE5808
:10040000FF4F8491F901E255FF4FD491F901E6566F
:10041000FF4FC491CC23A9F0162F81110E94D00167
:10042000EC2FF0E0EE0FFF1FE057FF4FA591B491C6
:100430008FB7F894EC91111108C0D095DE23DC93AE
:100440008FBFDF91CF911F910895DE2BF8CFCF930F
:10045000DF9390E0FC01E255FF4F249186569F4FB9
:10046000FC0184918823D1F090E0880F991FFC0152
:10047000E859FF4FA591B491FC01E057FF4FC5919A
:10048000D49161110EC09FB7F8948C91E22FE09542
:100490008E238C932881E223E8839FBFDF91CF9145
:1004A00008958FB7F894EC91E22BEC938FBFF6CFC1
:1004B0003FB7F8948091440290914502A091460282
:1004C000B091470226B5A89B05C02F3F19F00196B1
:1004D000A11DB11D3FBFBA2FA92F982F8827BC019E
:1004E000CD01620F711D811D911D42E0660F771FC6
:1004F000881F991F4A95D1F708958F929F92AF92C6
:10050000BF92CF92DF92EF92FF924B015C010E946B
:1005100058026B017C010E9458026C197D098E09FA
:100520009F09683E734081059105A8F321E0821A76
:100530009108A108B10888EEC80E83E0D81EE11C1E
:10054000F11C81149104A104B10429F7FF90EF90EC
:10055000DF90CF90BF90AF909F908F9008952091A3
:100560004A0230914B022817390771F490914802E2
:1005700080914902981741F0E0914802F0E0E25082
:10058000FE4F808190E008958FEF9FEF08950895CA
:10059000EF92FF920F931F93CF93DF93DC015C9652
:1005A000ED90FC905D97E114F10479F481E090E026
:1005B00013969C938E93129790E080E0DF91CF91F9
:1005C0001F910F91FF90EF9008955196ED91FC913E
:1005D000529750968C915097982F90950FB75E96A2
:1005E0002C915E97122F127021FD6095F894208156
:1005F000112319F1282B2083E7012197F1F728E037
:10060000462F50E0308160FF1AC0382B3083E7015D
:100610002197F1F7BA0175956795215089F7112354
:1006200081F08081892380830FBF5C968D919C919E
:100630000197F1F781E090E0C1CF2923DCCF392386
:10064000E5CF9081892BEFCF20914A0230914B0268
:100650002817390771F4809149022091480290E0EF
:10066000805C9F4F821B910960E470E00E948C0ABD
:10067000089590E080E0089520914A0230914B0265
:1006800028173907B9F490914802809149029817C8
:1006900089F0E0914802F0E0E250FE4F8081209125
:1006A000480230E02F5F3F4F2F73332720934802DB
:1006B00090E008958FEF9FEF0895089590E080E017
:1006C0000895CF93DF93EC0160E08E810E94F901E1
:1006D00061E08E810E94F90160E08E810E94F90143
:1006E0008BE891E00197F1F7DF91CF910895CF92D8
:1006F000DF92EF92FF920F931F93CF93DF936C01E2
:100700007C0187E0E80EF11CD0E0C0E0062F10E08D
:10071000B8010C2E02C0759567950A94E2F76170D6
:10072000F70181917F010E94F9012196C430D10522
:1007300079F7C601DF91CF911F910F91FF90EF9054
:10074000DF90CF900C946103CF92DF92EF92FF92F3
:100750000F931F93CF93DF93EC01F62E642F8C81C0
:100760000E94F9018D818F3F19F060E00E94F9012C
:100770000F2D10E08F8584FF25C06E0187E0C80E25
:10078000D11CF12CE12CB8010E2C02C07595679597
:100790000A94E2F76170F60181916F010E94F901FC
:1007A000FFEFEF1AFF0A88E0E816F10461F7CE01C7
:1007B000DF91CF911F910F91FF90EF90DF90CF903D
:1007C0000C946103B80184E0759567958A95E1F70B
:1007D000CE010E9477036F2DCE01DF91CF911F9143
:1007E0000F91FF90EF90DF90CF900C94770340E053
:1007F000682F8EE093E00C94A40390912103891755
:1008000010F08FEF890FE82FF0E0E25FFC4F848952
:1008100080680C94F70341E00E94A40381E090E01B
:100820000895FB0101900020E9F73197AF01461BC5
:10083000570BDC01ED91FC910280F381E02D0994CE
:10084000CF93DF93BC0186E293E00E941104EC0198
:1008500060E371E086E293E00E9411048C0F9D1F1B
:10086000DF91CF9108951F920F920FB60F9211242E
:100870002F933F934F935F936F937F938F939F93A8
:10088000AF93BF93EF93FF938CE492E00E944101FA
:10089000FF91EF91BF91AF919F918F917F916F9158
:1008A0005F914F913F912F910F900FBE0F901F902E
:1008B00018951F920F920FB60F9211242F938F93BA
:1008C0009F93EF93FF93E0915C02F0915D02808132
:1008D000E0916202F091630282FD1BC090818091E1
:1008E00065028F5F8F7320916602821741F0E0915D
:1008F0006502F0E0E45BFD4F958F80936502FF9108
:10090000EF919F918F912F910F900FBE0F901F909D
:1009100018958081F4CF1F920F920FB60F92112479
:100920002F933F938F939F93AF93BF9380914002F8
:1009300090914102A0914202B091430230913F0256
:1009400023E0230F2D3758F50196A11DB11D2093EB
:100950003F028093400290934102A0934202B093E1
:1009600043028091440290914502A0914602B091C9
:1009700047020196A11DB11D809344029093450248
:10098000A0934602B0934702BF91AF919F918F9180
:100990003F912F910F900FBE0F901F90189526E852
:1009A000230F0296A11DB11DD2CF1F920F920FB639
:1009B0000F9211242F933F934F935F936F937F93E5
:1009C0008F939F93AF93BF93CF93DF93EF93FF9357
:1009D00080913E02C0910D03D0E087FF24C01092A9
:1009E00085001092840080913E028F5F80933E02CA
:1009F00080913E02082E000C990B8C179D0724F461
:100A000080913E028C30C4F18091840090918500E9
:100A1000049680349C4908F47AC0809184009091B7
:100A20008500049676C080913E02082E000C990B3A
:100A30008C179D07C4F6E0913E028E2FEE0F990BA6
:100A4000FC01EE0FFF1FE80FF91FE751FD4F8081FA
:100A500086FFC9CFE0913E028E2FEE0F990BFC016D
:100A6000EE0FFF1FE80FF91FE751FD4F808160E097
:100A70008F730E94F901B7CF2091840030918500D7
:100A8000E0913E028E2FEE0F990BFC01EE0FFF1F3F
:100A9000E80FF91FE751FD4F81819281820F931F6B
:100AA0009093890080938800E0913E028E2FEE0F94
:100AB000990BFC01EE0FFF1FE80FF91FE751FD4FE7
:100AC000808186FF11C0E0913E028E2FEE0F990BC0
:100AD000FC01EE0FFF1FE80FF91FE751FD4F80816A
:100AE00061E08F730E94F901FF91EF91DF91CF9147
:100AF000BF91AF919F918F917F916F915F914F9136
:100B00003F912F910F900FBE0F901F90189580E48A
:100B10009CE990938900809388008FEF80933E0238
:100B2000E3CF1F920F920FB60F9211242F933F9392
:100B30004F935F936F937F938F939F93AF93BF93E5
:100B4000EF93FF93E0914A02F0914B02309749F006
:100B5000A685B7858585968D91FF14C09C918923C4
:100B6000A1F4FF91EF91BF91AF919F918F917F91F0
:100B70006F915F914F913F912F910F900FBE0F900A
:100B80001F9018959C91892361F7A389B4899C9142
:100B90008589809589238C93868997890197F1F7B8
:100BA000608D718DA685B785558538E020E0CB0135
:100BB0000197F1F7822F90E095958795282F4C911A
:100BC000452309F02068315091F7868D81FD2095ED
:100BD0008091490290E001968F73992730914802E5
:100BE000381799F0A0914902B0E0A250BE4F2C9363
:100BF00080934902828D938D0197F1F7A389B4897F
:100C00008C919589892B8C93ACCF868D8160868F52
:100C1000F1CFCF93DF9310924F0210924E0288EEE5
:100C200093E0A0E0B0E08093500290935102A09333
:100C30005202B093530284E091E090934D0280936E
:100C40004C0285EC90E0909359028093580284EC1A
:100C500090E090935B0280935A0280EC90E0909336
:100C60005D0280935C0281EC90E090935F02809340
:100C70005E0282EC90E0909361028093600286ECC9
:100C800090E090936302809362021092650210924A
:100C90006602109267021092680280910D038C30F8
:100CA00008F0D9C091E0980F90930D03809345030D
:100CB00090E0FC01EE0FFF1FE80FF91FE751FD4F19
:100CC00088EB9BE092838183109229031092280382
:100CD00088EE93E0A0E0B0E080932A0390932B038A
:100CE000A0932C03B0932D0382E291E0909327030D
:100CF0008093260310923D0310923C0310923F0311
:100D000010923E031092410310924003109243034D
:100D100010924203609144036E7F6D7F60934403A1
:100D20006695617081E068278AE00E94F90161E0C0
:100D30008AE00E942702E8EBF0E0E491E0933603BA
:100D4000E4EAF0E0E491F0E0EE0FFF1FE057FF4F20
:100D500085919491909338038093370360E089E004
:100D60000E9427028091440381FD04C061E089E074
:100D70000E94F90189E080933203E7EBF0E0E4910F
:100D8000E0933303E3EAF0E0E491F0E0EE0FFF1FBD
:100D9000EA57FF4F859194919093350380933403E4
:100DA000109211031092100386E191E090930F03CB
:100DB00080930E038CE0809312038FEF80931303D4
:100DC0008BE08093140385E08093150384E0809387
:100DD000160383E08093170382E080931803109238
:100DE000190310921A0310921B0310921C03109205
:100DF0001D0381E0809321031092220380E48093FD
:100E0000230380E18093240380E58093250361E040
:100E10008CE00E942702809113038F3F19F061E05C
:100E20000E94270261E0809114030E942702CEE015
:100E3000D3E09E012E50334080911D0384FD0FC0EE
:100E400084E090E021962817390764F461E08E81F0
:100E50000E942702EECF8FEF8093450335CF88E0C5
:100E600090E0F0CF8BE39DE00197F1F760E0809197
:100E700012030E94F90160E0809114030E94F901BD
:100E8000809113038F3F19F060E00E94F901809177
:100E90001D0384FD39C063E08EE093E00E94770378
:100EA000CBE4D6E4CE010197F1F763E08EE093E066
:100EB0000E9477032197F1F763E08EE093E00E94B0
:100EC000770383E592E00197F1F762E08EE093E02B
:100ED0000E94770380911D0380620E94F70384E0E3
:100EE00080931E038CE00E94F70381E00E94F703C9
:100EF0008BE39FE10197F1F782E080931F0386E087
:100F0000DF91CF910C94F70380620E94F7038BE48A
:100F100096E40197F1F780911D0380620E94F70328
:100F200083E592E00197F1F780911D0380620E94B2
:100F3000F703D0CF789484B5826084BD84B5816096
:100F400084BD85B5826085BD85B5816085BD809194
:100F50006E00816080936E0010928100809181000C
:100F60008260809381008091810081608093810004
:100F7000809180008160809380008091B1008460C6
:100F80008093B1008091B00081608093B000809127
:100F90007A00846080937A0080917A0082608093E6
:100FA0007A0080917A00816080937A0080917A0043
:100FB000806880937A001092C100109241031092D1
:100FC000400310923F0310923E0310923D03109293
:100FD0003C038DE991E09093430380934203909109
:100FE0003203963108F047C02DEB30E030933D03DB
:100FF00020933C032BE931E030933F0320933E03E1
:101000002CE231E0309341032093400320916800AB
:1010100084E0983048F031E09E3008F430E081E020
:1010200001C0880F3A95EAF7822B809368002DE67D
:1010300030E0983050F02BE630E09E3030F02CE677
:1010400030E0963110F030E020E030933A03209306
:101050003903292F30E0983008F09DC181E001C0AC
:10106000880F9A95EAF780933B0380914203909111
:1010700043030197F1F78091400390914103892B3D
:1010800049F1E0914A02F0914B0223E0E632F20787
:1010900009F1309739F0A389B4899C9185898095AD
:1010A00089238C93809144038E7F80934403109214
:1010B00049021092480286E293E090934B0280939B
:1010C0004A02E0913903F0913A03808190913B0309
:1010D000892B8083E0915C02F0915D0282E0808345
:1010E000E0915802F09159021082E0915A02F09179
:1010F0005B028FEC808310926402E0916002F091B9
:10110000610286E08083E0915E02F0915F0280815F
:1011100080618083E0915E02F0915F02808188604F
:101120008083E0915E02F0915F028081806880831D
:10113000E0915E02F0915F0280818F7D808360E0AC
:1011400088E00E942702809145038C3008F051C04E
:1011500061E089E00E94270280914503282F30E05A
:10116000F901EE0FFF1FE20FF31FE751FD4F9081D2
:10117000907C9960908310924603109247032CE074
:10118000622F0E94800A829FB001112430E020E08B
:10119000AB01420F531FFA01EE0FFF1FE40FF51FC3
:1011A000E751FD4F908196FD16C02F5F3F4F2C30C9
:1011B000310571F781110FC01092800082E0809399
:1011C00081001092850010928400B19A80916F0086
:1011D000826080936F00E09145038E2F90E0FC01C8
:1011E000EE0FFF1FE80FF91FE751FD4F808180646C
:1011F000808362EA262E60E0362EC8E8D0E078E5EB
:10120000C72E72E0D72EE4EB8E2E912CA12CB12CA0
:101210000BE31FE1F0E0EF2EF0E0FF2EEAE7F0E055
:101220008491E6EBF0E07490F1016490662009F49B
:10123000BFC081110E94D001E62DF0E0EE0FFF1F2C
:10124000EA57FF4FA591B4918C91782209F4B0C070
:1012500080E00E94FD0363E371E08EE093E00E9472
:10126000110468EE73E080E090E00E947D0261E08E
:1012700087E00E94F90160E086E00E94F90185E4C0
:1012800091E00E94200468EE73E080E090E00E940C
:101290007D028FE491E00E94200468EE73E080E01C
:1012A00090E00E947D0289E691E00E9420046AE1BC
:1012B00086E293E00E94C80260E371E086E293E078
:1012C0000E94110486E293E00E9424031816190676
:1012D0004CF486E293E00E943C03682F8CE492E099
:1012E0000E946301809146032E01481A510887FD30
:1012F0005394440C551C440C551C052C000C6608DA
:101300007708809147039601281B310987FD3395A3
:10131000220F331F220F331F032E000C440B550BDB
:101320002419350946095709AAE5B0E00E94440A84
:10133000A50194010E94250ADA01C901840D951DB9
:10134000A61DB71D0E948D006FE070E080E090E068
:101350000E947D0281E00E94FD0361EA71E08EE05F
:1013600093E00E94110468EE73E080E090E00E9438
:101370007D0281E00E94F703C8010197F1F7E114B3
:10138000F10409F44BCF0E942D01882309F446CFC4
:101390000E94000043CF9E3040F42850310981E084
:1013A00001C0880F2A95EAF75ECE2E503109F7CF9B
:1013B00080E00E94FD0369EC71E08EE093E00E9402
:1013C000110468EE73E080E090E00E947D0261E02D
:1013D00086E00E94F90160E087E00E94F9018091B7
:1013E00046039E01281B310987FD3395C901880FEB
:1013F000991F880F991F0E948D006FE070E080E0B8
:1014000090E00E947D0281E00E94FD036AED71E0A0
:10141000A6CF82E291E090932703809326038091E8
:101420004A0290914B028652934071F4E091390345
:10143000F0913A03908180913B03809589238083CA
:1014400010924B0210924A020895052E97FB1EF44B
:1014500000940E943C0A57FD07D00E944F0A07FCE7
:1014600003D04EF40C943C0A50954095309521954C
:101470003F4F4F4F5F4F08959095809570956195C0
:101480007F4F8F4F9F4F08950E94710AA59F900D27
:10149000B49F900DA49F800D911D11240895A1E289
:1014A0001A2EAA1BBB1BFD010DC0AA1FBB1FEE1FDE
:1014B000FF1FA217B307E407F50720F0A21BB30B29
:1014C000E40BF50B661F771F881F991F1A9469F7A5
:1014D00060957095809590959B01AC01BD01CF0101
:1014E0000895A29FB001B39FC001A39F700D811DFD
:1014F0001124911DB29F700D811D1124911D08951D
:10150000991B79E004C0991F961708F0961B881F55
:101510007A95C9F78095089597FB072E16F40094E5
:1015200007D077FD09D00E94A00A07FC05D03EF441
:10153000909581959F4F0895709561957F4F08957F
:10154000AA1BBB1B51E107C0AA1FBB1FA617B707E9
:1015500010F0A61BB70B881F991F5A95A9F7809505
:101560009095BC01CD010895EE0FFF1F0590F491F9
:10157000E02D099410E0C2E6D0E004C0FE010E9414
:0E158000B40A2196C336D107C9F7F894FFCFFD
:10158E00000000006301C300F000B0012101FF0064
:10159E001301000000000B04C3005E035D03000096
:1015AE000000C802C3005E03C70224033C03AF025F
:1015BE000D0A0020476173206973204465746563CA
:1015CE00746564200041542B434D47463D31004124
:1015DE00542B434D47463D222B3838303136373663
:1015EE00393138383738220D0048656C6C6F204E13
:1015FE005548454C202121212054686520476173B0
:10160E0020686173206265656E206C65616B656430
:10161E00202120506C6561736520636865636B20C3
:10162E000047617320676174652069732064697374
:10163E00636F6E6E65637465642066726F6D207481
:10164E006865206C696E6520004E6F2047617320BF
:10165E004465746563746564200047617320676137
:10166E00746520697320636F6E6E656374656420A4
:0E167E00746F20746865206C696E6520000032
:00000001FF
